:040000008A15CA286B
:0A000600D20803190800F930FF3E8C
:10001000031D0728D20B062808008316981C0D28FC
:100020008312580899000800DB01DA01DC01DC19B1
:1000300025280310DA0DD50DDB0D56085B02031CD5
:100040002328DB005A14DC0A17285B08C9000800C3
:10005000DB01DA01DC01DC1939280310DA0DD30DDC
:10006000DB0D54085B02031C3728DB005A14DC0A42
:100070002B285A08C9000800E501E401E301E20168
:10008000E601661A5B280310E20DE30DD80DD90DC9
:10009000E40DE50D5B086502031D50285A08640253
:1000A000031C59285A08E4025B08031CE503E50217
:1000B0006214E60A41286408C9006508CA000800FD
:1000C000E901E801E701E601EA016A1A7F28031065
:1000D000E60DE70DE00DE10DE80DE90D630869029D
:1000E000031D742862086802031C7D286208E80268
:1000F0006308031CE903E9026614EA0A6528660836
:10010000C9006708CA0008005208633C0318982811
:100110005208D3006430D40028204908D5000A30A2
:10012000D60014204908D90030305907D8000D20D6
:100130005208093C0318AC285208D3000A30D400F6
:1001400028204908D5000A30D60014204908D900D3
:1001500030305907D8000D205208D5000A30D6009B
:1001600014204908D40030305407D8000D2008006E
:10017000831203138C1ABF28FF30C90008001A0825
:10018000C900080083168717071383124B088316CC
:100190009900243098009030831298000800BF1F07
:1001A000F028D31FE2285209E0005309E100E00AD9
:1001B0000319E10A3E09E2003F09E300E20A0319DC
:1001C000E30A0E29BF1FF0285208E0005308E1009F
:1001D0003E09E2003F09E300E20A0319E30AFD28B1
:1001E000D31F06295209E0005309E100E00A031970
:1001F000E10A3E08E2003F08E30060204909E4000C
:100200004A09E500E40A0319E50A13295208E00047
:100210005308E1003E08E2003F08E300602049087F
:10022000E4004A08E5006408D2006508D3005308DA
:10023000803AE00080306002031D20290030520225
:10024000031C24290610302906145208FF3EE00042
:100250005308E1000318E10A6008D2006108D300E6
:1002600031293229D31F47295209D8005309D9000F
:10027000D80A0319D90A0430DA00DB013C20490905
:10028000E0004A09E100E00A0319E10A5329520893
:10029000D8005308D9000430DA00DB013C204908BB
:1002A000E0004A08E1006008D6006108D70056085F
:1002B0005202E000570A031857085302E100600891
:1002C000E2000310E30CE20C0310E30C620C950057
:1002D000971217125708803A803C031D712956085F
:1002E000023C031C971674297529D71F8A295609C1
:1002F000D8005709D900D80A0319D90A0230DA0000
:10030000DB013C204909DC004A09DD00DC0A031955
:10031000DD0A96295608D8005708D9000230DA00BD
:10032000DB013C204908DC004A08DD0001305C06A6
:1003300003195D0803191716BF1FBD29D51FAF2963
:100340005409E0005509E100E00A0319E10A3E09F9
:10035000E2003F09E300E20A0319E30ADB29BF1FB9
:10036000BD295408E0005508E1003E09E2003F09BC
:10037000E300E20A0319E30ACA29D51FD329540965
:10038000E0005509E100E00A0319E10A3E08E20035
:100390003F08E30060204909E4004A09E500E40A57
:1003A0000319E50AE0295408E0005508E1003E0879
:1003B000E2003F08E30060204908E4004A08E50045
:1003C0006408D4006508D5005508803AE000803004
:1003D0006002031DED2900305402031CF129861030
:1003E000FD2986145408FF3EE0005508E10003187B
:1003F000E10A6008D4006108D500FE29FF29D51F55
:10040000142A5409D8005509D900D80A0319D90A61
:100410000430DA00DB013C204909E0004A09E10030
:10042000E00A0319E10A202A5408D8005508D90027
:100430000430DA00DB013C204908E0004A08E10012
:100440006008D6006108D70056085402E000570A39
:10045000031857085502E1006008E2000310E30C9E
:10046000E20C0310E30C620C9B009D121D12570856
:10047000803A803C031D3E2A5608023C031C9D1610
:10048000412A422AD71F572A5609D8005709D900AE
:10049000D80A0319D90A0230DA00DB013C204909E5
:1004A000DE004A09DF00DE0A0319DF0A632A560864
:1004B000D8005708D9000230DA00DB013C20490897
:1004C000DE004A08DF0001305E0603195F080319E9
:1004D0001D160800DC01DE01DD015208DF005308B3
:1004E000E0005C1A822A541C7B2A5F08DD0703188F
:1004F000DE0A6008DE07D50CD40C0310DF0DE00D1A
:10050000DC0A712A5D08C9005E08CA000800D4012F
:10051000D601D5014C08D7004D08D800D4199E2A21
:100520004B1C982A5708D5070318D60A5808D6072F
:10053000CB0C0310D70DD80DD40A8E2A5508C9004C
:100540005608CA000800D901DB01DA015208DC00B4
:100550005308DD00D919BA2A541CB42A5C08DA07FA
:100560000318DB0A5D08DB07D40C0310DC0DDD0D7E
:10057000D90AAA2A5A08C9005B08CA0008008316CB
:1005800003138501860187018312860185011930D5
:10059000CB00C22083160516810181168115071430
:1005A00083129001901410141015831606158615E9
:1005B0000711313092008312D301D201D501D40149
:1005C000CF209201121597151715831687108312E5
:1005D0009D151D15D2018E01520881004208D200DE
:1005E00003200108A800A9010E08AA00AB01C4015C
:1005F000FF3044020318012B051AFF2A012BC40AFD
:10060000F82AC401FF30440203180A2B051A0A2BEA
:10061000C40A022B061D192B43102809D2002909F0
:10062000D300D20A0319D30A5208A8005308A9001C
:100630001A2B4314C401FF3044020318242B07185B
:10064000222B242BC40A1B2BC401FF3044020318A5
:100650002D2B07182D2BC40A252B861D3C2BC310D0
:100660002A09D2002B09D300D20A0319D30A52084F
:10067000AA005308AB003D2BC3143208B600330860
:10068000B70028082002D200290A031829082102ED
:10069000D3005208B2005308B300D701B21F6F2B2A
:1006A000AC1F612B2C09D2002D09D300D20A0319EB
:1006B000D30A3209D4003309D500D40A0319D50A64
:1006C0008D2BB21F6F2B2C08D2002D08D3003209BE
:1006D000D4003309D500D40A0319D50A7C2BAC1FEA
:1006E000852B2C09D2002D09D300D20A0319D30A75
:1006F0003208D4003308D5006A224909D6004A09D5
:10070000D700D60A0319D70A922B2C08D2002D083D
:10071000D3003208D4003308D5006A224908D60035
:100720004A08D70056082207D8005708D9002308DE
:100730000318D90AD9075808A2005908A300360897
:100740003202D600370A031837083302D700D9011E
:10075000D61FC92BB01FBB2B3009D2003109D300E3
:10076000D20A0319D30A5609D4005709D500D40A6E
:100770000319D50AE72BD61FC92B3008D200310840
:10078000D3005609D4005709D500D40A0319D50A55
:10079000D62BB01FDF2B3009D2003109D300D20A8B
:1007A0000319D30A5608D4005708D5006A2249090C
:1007B000D8004A09D900D80A0319D90AEC2B300805
:1007C000D2003108D3005608D4005708D5006A2259
:1007D0004908D8004A08D90058082207DA00590801
:1007E000DB0023080318DB0ADB075A08A2005B08BA
:1007F000A3003408B8003508B9002A082002D20046
:100800002B0A03182B082102D3005208B400530806
:10081000B500D701B41F2B2CAC1F1D2C2C09D20006
:100820002D09D300D20A0319D30A3409D40035099B
:10083000D500D40A0319D50A492CB41F2B2C2C0837
:10084000D2002D08D3003409D4003509D500D40ACC
:100850000319D50A382CAC1F412C2C09D2002D09C4
:10086000D300D20A0319D30A3408D4003508D500BE
:100870006A224909D6004A09D700D60A0319D70ABD
:100880004E2C2C08D2002D08D3003408D400350893
:10089000D5006A224908D6004A08D700560824071E
:1008A000D8005708D90025080318D90AD9075808CD
:1008B000A4005908A50038083402D600390A0318E4
:1008C00039083502D700D901D61F852CB01F772CE7
:1008D0003009D2003109D300D20A0319D30A5609CC
:1008E000D4005709D500D40A0319D50AA32CD61F62
:1008F000852C3008D2003108D3005609D40057099E
:10090000D500D40A0319D50A922CB01F9B2C3009AC
:10091000D2003109D300D20A0319D30A5608D400F1
:100920005708D5006A224909D8004A09D900D80ACF
:100930000319D90AA82C3008D2003108D300560870
:10094000D4005708D5006A224908D8004A08D900BF
:1009500058082407DA005908DB0025080318DB0AC9
:10096000DB075A08A4005B08A5002108803AD200E2
:1009700080305202031DBE2C00302002031CDF2CED
:100980002A082802D2002B0A03182B082902D300B8
:1009900052083A07D4005308D5003B080318D50A7B
:1009A000D5073C085407D6003D08D7005508031862
:1009B000D70AD7075608BA005708BB00FC2C2A08EC
:1009C0002802D2002B0A03182B082902D300520850
:1009D0003A07D4005308D5003B080318D50AD507B9
:1009E0003C085402D6003D0A03183D085502D700C2
:1009F0005608BA005708BB00D701BA1F1E2DAE1FFC
:100A0000102D2E09D2002F09D300D20A0319D30AC0
:100A10003A09D4003B09D500D40A0319D50A3C2D64
:100A2000BA1F1E2D2E08D2002F08D3003A09D40079
:100A30003B09D500D40A0319D50A2B2DAE1F342D3E
:100A40002E09D2002F09D300D20A0319D30A3A087B
:100A5000D4003B08D5006A224909D6004A09D700CC
:100A6000D60A0319D70A412D2E08D2002F08D30029
:100A70003A08D4003B08D5006A224908D6004A0843
:100A8000D70056082202D800570A03185708230235
:100A9000D9005808A2005908A300D701BA1F6F2D2A
:100AA000AE1F612D2E09D2002F09D300D20A0319DF
:100AB000D30A3A09D4003B09D500D40A0319D50A50
:100AC0008D2DBA1F6F2D2E08D2002F08D3003A09A2
:100AD000D4003B09D500D40A0319D50A7C2DAE1FDA
:100AE000852D2E09D2002F09D300D20A0319D30A6B
:100AF0003A08D4003B08D5006A224909D6004A09C1
:100B0000D700D60A0319D70A922D2E08D2002F0833
:100B1000D3003A08D4003B08D5006A224908D60021
:100B20004A08D70056082407D8005708D9002508D6
:100B30000318D90AD9075808A4005908A500D401F8
:100B4000BE1FAF2DA32DBE1FAF2DFF30CB003E0922
:100B5000CC003F09CD00CC0A0319CD0AB02DB92D28
:100B600087224909D3004A09D400D30A0319D40AB9
:100B7000C42DFF30CB003E08CC003F08CD008722BB
:100B80004908D3004A08D4005408803AD200230808
:100B9000803A5202031DCE2D220853020318F92D6C
:100BA000D301BE1FE02DD42DBE1FE02DFF30CB00A2
:100BB0003E09CC003F09CD00CC0A0319CD0AE12D36
:100BC000EA2D87224909D2004A09D300D20A031923
:100BD000D30AF52DFF30CB003E08CC003F08CD00F6
:100BE00087224908D2004A08D3005208A2005308BD
:100BF000A300CF01BE1F092EFD2DBE1F092EFF3001
:100C0000CB003E09CC003F09CD00CC0A0319CD0A28
:100C10000A2E132E87224909CE004A09CF00CE0A98
:100C20000319CF0A1E2EFF30CB003E08CC003F0830
:100C3000CD0087224908CE004A08CF004E09D300D4
:100C40004F09D400D30A0319D40A2308803AD200EA
:100C50005408803A5202031D2F2E53082202031813
:100C60005E2ED701BE1F422EFE30D200D301D20A23
:100C70000319D30A3E09D4003F09D500D40A031949
:100C8000D50A552EFE30D200D301D20A0319D30A59
:100C90003E08D4003F08D5006A224909D6004A0917
:100CA000D700D60A0319D70A5A2E6A224908D60055
:100CB0004A08D7005608A2005708A300D401BE1F57
:100CC0006E2E622EBE1F6E2EFF30CB003E09CC0072
:100CD0003F09CD00CC0A0319CD0A6F2E782E87224A
:100CE0004909D3004A09D400D30A0319D40A832E30
:100CF000FF30CB003E08CC003F08CD0087224908DA
:100D0000D3004A08D4005408803AD2002508803A1B
:100D10005202031D8D2E240853020318B82ED3014E
:100D2000BE1F9F2E932EBE1F9F2EFF30CB003E096D
:100D3000CC003F09CD00CC0A0319CD0AA02EA92E64
:100D400087224909D2004A09D300D20A0319D30ADB
:100D5000B42EFF30CB003E08CC003F08CD008722E8
:100D60004908D2004A08D3005208A4005308A5003D
:100D7000D101BE1FC82EBC2EBE1FC82EFF30CB0017
:100D80003E09CC003F09CD00CC0A0319CD0AC92E7B
:100D9000D22E87224909D0004A09D100D00A03196E
:100DA000D10ADD2EFF30CB003E08CC003F08CD003D
:100DB00087224908D0004A08D1005009D3005109C0
:100DC000D400D30A0319D40A2508803AD200540863
:100DD000803A5202031DEE2E5308240203181D2FE1
:100DE000D701BE1F012FFE30D200D301D20A031952
:100DF000D30A3E09D4003F09D500D40A0319D50A05
:100E0000142FFE30D200D301D20A0319D30A3E08B0
:100E1000D4003F08D5006A224909D6004A09D70004
:100E2000D60A0319D70A192F6A224908D6004A0898
:100E3000D7005608A4005708A5002208D2002308AE
:100E4000D3002408D4002508D500CF20431DEA2F65
:100E50002108803AD20080305202031D312F003029
:100E60002002031C372F2008D20084203E2F2D3073
:100E7000D8000D202009D200D20A84200930D800E1
:100E80000D202B08803AD20080305202031D4A2FD9
:100E900000302A02031C502F2A08D2008420572F2A
:100EA0002D30D8000D202A09D200D20A8420093022
:100EB000D8000D202908803AD20080305202031D4C
:100EC000632F00302802031C692F2808D2008420D9
:100ED000702F2D30D8000D202809D200D20A84208E
:100EE0000930D8000D202D08803AD20080305202FF
:100EF000031D7C2F00302C02031C822F2C08D200F3
:100F00008420892F2D30D8000D202C09D200D20A40
:100F100084200930D8000D203108803AD20080307A
:100F20005202031D952F00303002031C9B2F300806
:100F3000D2008420A22F2D30D8000D203009D200FD
:100F4000D20A84200930D8000D202F08803AD20020
:100F500080305202031DAE2F00302E02031CB42F2E
:100F60002E08D2008420BB2F2D30D8000D202E0952
:100F7000D200D20A84200930D8000D203D08803AE2
:100F8000D20080305202031DC72F00303C02031CE8
:100F9000CD2F3C08D2008420D42F2D30D8000D2036
:100FA0003C09D200D20A84200930D8000D2000303C
:100FB0004202031CDF2F4208D2008420E62F2D308E
:100FC000D8000D204209D200D20A84200D30D8006A
:100FD0000D20ED2F1430D2000320B8204908C000A6
:100FE0004008203A8A15031912284008213A0319AB
:100FF00049284008223A031980284008233A031957
:1010000092284008243A0319A4284008253A0319D5
:10101000B6284008263A0319C5284008273A03197C
:10102000C728C8288C1E12288A11B8204908C10078
:10103000D60132304102D500031CD603D8018A15EF
:101040002128D51F37285509D2005609D300D20AC6
:101050000319D30A0A30D4008A11A3224909D70000
:101060004A09D800D70A0319D80A8A15432855080F
:10107000D2005608D3000A30D4008A11A3224908AE
:10108000D7004A08D8005708A0005808A1008A15C0
:10109000C8288C1E49288A11B8204908C100D601E9
:1010A00032304102D500031CD603D8018A155828D6
:1010B000D51F6E285509D2005609D300D20A03194C
:1010C000D30A0A30D4008A11A3224909D7004A0959
:1010D000D800D70A0319D80A8A157A285508D200E9
:1010E0005608D3000A30D4008A11A3224908D70039
:1010F0004A08D8005708BC005808BD008A15C828FF
:101100008C1E80288A11B8204908C100D3013230D2
:101110004102D200031CD3035208AC005308AD00B7
:101120008A15C8288C1E92288A11B8204908C10047
:10113000D30132304102D200031CD3035208AE0067
:101140005308AF008A15C8288C1EA4288A11B8201D
:101150004908C100D30132304102D200031CD3033D
:101160005208B0005308B1008A15C8288C1EB62852
:10117000D30132304102D200031CD3035208C20013
:1011800000304202031CC201C8284315C82843117D
:101190008A11EA2A83120313A101A001A301A2016B
:1011A000A501A401A901A801AB01AA013230AC003C
:1011B000AD010130AE00AF012830B000B101B30184
:1011C000B201B501B401BB01BA01BD01BC013230AD
:1011D000BE00BF010C30C2004311D530C500C43081
:0E11E000C600BB30C700DC30C8008A11BF2A31
:02400E00793FF8
:00000001FF