:1000000000308A00FF2900000A108A100A118207B6
:100010000D340A344D346F3474346F3472342034F8
:10002000763432342E3430340D340A3400340A102D
:100030008A100A1182074D34613479342034323405
:100040003034303436342E3420342E346D3475341C
:100050006E3464346F3462346F3474342E346334E9
:100060006F346D340D340A34003446308400000897
:10007000031949280130F800F701F70B3D28F80B68
:100080003C284A30F700F70B432800000000800BA3
:100090003A2800341030CC00F701FA01C90CC80C22
:1000A000031C58284A08F7070318FA0A4B08FA07EE
:1000B000FA0CF70CF90CF80CCC0B4E2800344D0858
:1000C0004F068039D100CD1F6A28CC09CD09CC0A52
:1000D0000319CD0ACF1F7128CE09CF09CE0A031903
:1000E000CF0AF801F901F701FA014F08031D7B2837
:1000F0004E08031995281030D0000310CC0DCD0DFB
:10010000F70DFA0D4F087A02031D88284E08770272
:10011000031C91284E08F702031CFA034F08FA0249
:100120000314F80DF90DD00B7D280000D11F9D2878
:10013000F809F909F80A0319F90A00344708CD004B
:100140004608CC003F08CF003E08CE005F2078086C
:10015000C6007908C70083160610831206104708E8
:10016000F9004608F800F90CF80CF90CF80CF90C39
:1001700078089500F90C790C3039F7001708CF3959
:10018000770497004908CD004808CC003F08CF000D
:100190003E08CE005F207808C8007908C9008316A1
:1001A0008610831286104908F9004808F800F90CF7
:1001B000F80CF90CF80CF90C78089B00F90C790C88
:1001C0003039F7001D08CF3977049D008A110A12D3
:1001D0009A2C0408CF00C91FF528CF174F1ECF0A4D
:1001E000C809C909C80A0319C90A490EF038CB0061
:1001F000CB07E23ECC00323ECE0049080F39CC0797
:10020000CC07CE07E93ECD00CD07CD07480E0F390C
:10021000CD07CE07CD0DCE0DCE09CE0D48080F3936
:10022000CE07CB0D0730CA000A30CE07CD03031C22
:100230001529CD07CC03031C1929CC07CB03031CBC
:100240001D29CB07CA03031C21294A30840007302B
:100250004F054F1384034F05031D35294F1A840A98
:100260004F1A35292030F700522984074E300402F6
:1002700003194F170008F700031D46294F1B462995
:100280004F1A5629CF19462920305129CF1F4E2900
:100290002D30F70084034F13CF135229CF154F127F
:1002A0003030F70777080C1E53299900840A4F1F36
:1002B000362900344D08F8014C02031862294C0815
:1002C000F7006E29F7010830CE00CC0DF70D4D0870
:1002D00077020318F700F80DCE0B652900342030A3
:1002E000471E3030C8004608F700C61F7E29F709B0
:1002F000F70A7708C6002D30C800C7174608CC009B
:100300006430CD005A217708C60030307807C90024
:100310004608CC000A30CD005A2130307707CB0098
:1003200030307807CA004808F700C71D9929C71F51
:100330004711471AA629C71FC1294719C12977089C
:10034000C900C718C1297708CA00C129303049023D
:10035000031DC1297708C9002030C800C71DB42972
:100360004711C714C71FC71030304A02031DC129E7
:100370007708CA002030C900C71DB429C710C71F9D
:100380004710471DC72948080C1EC4299900C71CDF
:10039000CD2949080C1ECA299900471CD3294A08AF
:1003A0000C1ED02999004B080C1ED42999008A11E3
:1003B0000A12812DF701F801480803104918F707C0
:1003C000F70CF80CC918F707F70CF80C4919F707E0
:1003D000F70CF80CC919F707F70CF80C491AF707CE
:1003E000F70CF80CC91AF707F70CF80C491BF707BC
:1003F000F70CF80CC91BF707F70CF80C0034840154
:100400001F30830519308316990066309800D0306C
:100410008312980083161F149F141F159F118312B7
:10042000A001A101A201A301A401A501A801A901A4
:10043000AA01AB013230AC00AD010130AE00AF011A
:100440002830B000B101B201B301B401B501BA0165
:10045000BB01BC01BD013230BE00BF010C30C20087
:100460004311FF30C5001030831685000C30860024
:10047000813087008312C5008316850183128501B0
:100480008316860183128601C60146080420C60A27
:10049000F70077080C1E4A2A99000E304602031D09
:1004A000452AC60146081720C60AF70077080C1E21
:1004B000572A99000A304602031D522A0330C7000A
:1004C00077300C1E612A9900C70B602A0A30C800D9
:1004D00048081720C80AF70077080C1E6D2A9900F3
:1004E00019304802031D682A0D300C1E752A990028
:1004F0000A300C1E792A990083160108C73928385A
:1005000081008730831290000030F8000438920098
:1005100063308316920083124511450883168700C5
:10052000831207110C309700C51045088316870009
:10053000831287100C309D0095019B0181018F0172
:100540008E014208C60035200108FA01A8007A0889
:10055000A9000F08FA000E08F7000F087A02031D21
:10056000A92A7708C6007A08C7004608FA01AA0037
:100570007A08AB00C401440FBE2ADD2A8316051693
:100580008312051ADB2AC401440FC72ADB2A83160B
:1005900005168312051ED92A831606158312061D19
:1005A000D82A4310A809A909A80A0319A90AD92A0F
:1005B0004314C40AC42AC40ABB2AC401440FE12A52
:1005C000EA2A45144508831687008312071CEA2A85
:1005D000C40ADE2AC401440FEE2AF72A451445084E
:1005E0008316870083120718F72AC40AEB2A83169A
:1005F00086158312861D032BC310AA09AB09AA0A0C
:100600000319AB0A042BC3143308B7003208B60031
:1006100028082002B2002108B3002908031C290F72
:10062000B3022D08C9002C08C8003308CB003208DB
:10063000CA004A207808A2070318A30A7908A3076A
:1006400036083202F7003308FA003708031C370F68
:10065000FA027708C6007A08C7003108C9003008D6
:10066000C8007A08CB007708CA004A207808A20799
:100670000318A30A7908A3073508B9003408B8009D
:100680002A082002B4002108B5002B08031C2B0FF8
:10069000B5022D08C9002C08C8003508CB00340865
:1006A000CA004A207808A4070318A50A7908A507F4
:1006B00038083402F7003508FA003908031C390FEE
:1006C000FA027708C6007A08C7003108C900300866
:1006D000C8007A08CB007708CA004A207808A40727
:1006E0000318A50A7908A507A11B922B2A0828023E
:1006F000F7002908FA002B08031C2B0FFA027708D1
:100700003A07C6003B08C7000318C70A7A08C7079C
:100710003C084607BA004708BB000318BB0A3D085F
:10072000BB07AD2B2A082802F7002908FA002B087E
:10073000031C2B0FFA0277083A07C6003B08C700D4
:100740000318C70A7A08C7073C084602BA004708D8
:10075000BB003D08031C3D0FBB022F08C9002E083B
:10076000C8003B08CB003A08CA004A207808A20219
:100770007908031C790FA3022F08C9002E08C800AE
:100780003B08CB003A08CA004A207808A40703189F
:10079000A50A7908A507C901FF30C8003F08CB00AA
:1007A0003E08CA004A207908FA007808F91FDB2BB6
:1007B000A31FE72BDD2BA31BF32B7A082302031CBB
:1007C000F32B031DE72B220878020318F32BC90132
:1007D000FF30C8003F08CB003E08CA004A20790815
:1007E000A3007808A200C901FF30C8003F08CB0071
:1007F0003E08CA004A207908FA007808003CF70051
:100800007908031C790F062C0030072C003CFA00F5
:100810007708F800A31F0F2CFA1F1B2C112CFA1BB2
:100820002E2C23087A02031C2E2C031D1B2C780867
:10083000220203182E2C3E09C6003F09C700C60A33
:100840000319C70A4708C9004608C800CB01FF3092
:10085000CA004A207908A3007808A200C901FF3025
:10086000C8003F08CB003E08CA004A207908FA00B9
:100870007808F91F3E2CA51F4A2C402CA51B562C8E
:100880007A082502031C562C031D4A2C24087802E2
:100890000318562CC901FF30C8003F08CB003E08A2
:1008A000CA004A207908A5007808A400C901FF30D1
:1008B000C8003F08CB003E08CA004A207908FA0069
:1008C0007808003CF7007908031C790F692C003088
:1008D0006A2C003CFA007708F800A51F722CFA1F5A
:1008E0007E2C742CFA1B912C25087A02031C912C67
:1008F000031D7E2C780824020318912C3E09C600A3
:100900003F09C700C60A0319C70A4708C9004608B5
:10091000C800CB01FF30CA004A207908A50078083A
:10092000A4002730C7001030C6004E30C900203068
:10093000C8009E28431D8A2DA11BA62C10308400C0
:100940002108C9002008C800E920B82C2009C600E9
:100950002109C700C60A0319C70A2D300C1EAE2C88
:100960009900103084004708C9004608C800E920F3
:1009700009300C1EB92C9900AB1BC62C103084001A
:100980002B08C9002A08C800E920D82C2A09C6006B
:100990002B09C700C60A0319C70A2D300C1ECE2C1E
:1009A0009900103084004708C9004608C800E920B3
:1009B00009300C1ED92C9900A91BE62C103084009C
:1009C0002908C9002808C800E920F82C2809C60011
:1009D0002909C700C60A0319C70A2D300C1EEE2CC0
:1009E0009900103084004708C9004608C800E92073
:1009F00009300C1EF92C9900AD1B062D1030840017
:100A00002D08C9002C08C800E920182D2C09C600A3
:100A10002D09C700C60A0319C70A2D300C1E0E2D5A
:100A20009900103084004708C9004608C800E92032
:100A300009300C1E192D9900B11B262D1030840091
:100A40003108C9003008C800E920382D3009C60037
:100A50003109C700C60A0319C70A2D300C1E2E2DF6
:100A60009900103084004708C9004608C800E920F2
:100A700009300C1E392D9900AF1B462D1030840013
:100A80002F08C9002E08C800E920582D2E09C600DD
:100A90002F09C700C60A0319C70A2D300C1E4E2D98
:100AA0009900103084004708C9004608C800E920B2
:100AB00009300C1E592D9900BD1B662D1030840085
:100AC0003D08C9003C08C800E920782D3C09C60053
:100AD0003D09C700C60A0319C70A2D300C1E6E2D2A
:100AE0009900103084004708C9004608C800E92072
:100AF00009300C1E792D99004208C6001F30C7002E
:100B00006F290D300C1E822D99000A300C1E862D87
:100B100099008D2D1430C60035208C1EFC2D8C1EA6
:100B20008F2D1A08C0004008203A0319AD2D013A54
:100B30000319BE2D033A0319CF2D013A0319DA2DFB
:100B4000073A0319E52D013A0319F02D033A031969
:100B5000F82D013A0319FA2DFC2D8C1EAD2D1A0823
:100B6000C10032304102C700C8000A30C900DA2192
:100B70007808FA01A0007A08A100FC2D8C1EBE2D79
:100B80001A08C10032304102C700C8000A30C9004B
:100B9000DA217808FA01BC007A08BD00FC2D8C1E11
:100BA000CF2D1A08C10032304102FA01AC007A0898
:100BB000AD00FC2D8C1EDA2D1A08C1003230410226
:100BC000FA01AE007A08AF00FC2D8C1EE52D1A0844
:100BD000C10032304102FA01B0007A08B100FC2DA8
:100BE0008C1EF02D1A08C10032304102C200FC2DCB
:0C0BF0004315FC2D4311FC2D9E2A6300D0
:02400E00713F00
:00000001FF
;PIC16F876
